:020000040800F2
:10000000F00E00204D0200083D23000835230008B3
:100010003923000845040008552E000800000000A0
:100020000000000000000000000000004523000860
:10003000550400080000000041230008492300087F
:1000400067020008670200086702000867020008EC
:1000500067020008670200086702000867020008DC
:1000600067020008670200086702000867020008CC
:1000700067020008670200086702000867020008BC
:1000800067020008670200086702000867020008AC
:10009000670200086702000867020008670200089C
:1000A000670200086702000867020008670200088C
:1000B000670200086702000867020008670200087C
:1000C000670200086702000867020008670200086C
:1000D000670200086702000867020008670200085C
:1000E0005904000867020008670200086702000858
:1000F000670200086702000867020008670200083C
:10010000670200086702000867020008670200082B
:10011000670200086702000811240008670200084F
:100120006702000849040008670200086702000827
:1001300067020008670200086702000867020008FB
:1001400067020008670200086702000867020008EB
:1001500067020008670200086702000867020008DB
:1001600067020008670200086702000867020008CB
:10017000670200086702000867020008000000002C
:1001800067020008670200086702000867020008AB
:10019000670200086702000867020008670200089B
:1001A00067020008670200086702000800F002F812
:1001B00000F03CF80AA090E8000C82448344AAF1C5
:1001C0000107DA4501D100F031F8AFF2090EBAE8C3
:1001D0000F0013F0010F18BFFB1A43F0010318477B
:1001E00084300000A4300000103A24BF78C878C1E1
:1001F000FAD8520724BF30C830C144BF04680C602D
:10020000704700000023002400250026103A28BF74
:1002100078C1FBD8520728BF30C148BF0B60704778
:100220001FB503F001F81FBD10B510BD00F0D0F8E8
:100230001146FFF7F5FF02F00FFE00F0EEF803B4F1
:10024000FFF7F2FF03BC00F0F5F800000948804713
:1002500009480047FEE7FEE7FEE7FEE7FEE7FEE7A8
:10026000FEE7FEE7FEE7FEE704480549054A064BC0
:1002700070470000FD230008AD010008F0080020D1
:10028000F00E0020F00A0020F00A002053EA020CD1
:1002900000F069802DE9F04B4FF00006002B1FBFE6
:1002A000B3FA83F503FA05F424FA05F65E4012BFAB
:1002B0001643B2FA82F502FA05F4C5F120051EBF15
:1002C00022FA05FC44EA0C04203556EA044C4FEAB5
:1002D000144418BF641C4FF000084FF0000990420E
:1002E00071EB030C39D3002919BFB1FA81F701FA78
:1002F00007F6B0FA80F700FA07F6C7F120071EBF2D
:1003000020FA07FC46EA0C062037B6FBF4FCA7EB04
:100310000507103F07F01F0BCBF120062CFA06F65D
:100320000CFA0BFB44BFB3460026202FA4BF5E4649
:100330004FF0000B5BEA060C08BF4FF0010B19EB06
:100340000B0948EB0608ABFB027C06FB02CC0BFB5F
:1003500003CCC01B71EB0C01C1E70B4602464146C2
:100360004846BDE8F08B13B5084318BF4FF0FF3087
:100370000146AFF30080BDE81C4070474FF000021B
:1003800000B5134694469646203922BFA0E80C508B
:10039000A0E80C50B1F12001BFF4F7AF090728BF66
:1003A000A0E80C5048BF0CC05DF804EB890028BFE2
:1003B00040F8042B08BF704748BF20F8022B11F00B
:1003C000804F18BF00F8012B704770477047704787
:1003D000754600F02BF8AE4605006946534620F0FE
:1003E0000700854618B020B5FFF73EFFBDE8204066
:1003F0004FF000064FF000074FF000084FF0000BE1
:10040000AC46ACE8C009ACE8C009ACE8C009ACE84F
:10041000C00921F007018D46704710B50446AFF3BF
:1004200000802046BDE81040FFF709BF0048704734
:100430001000002001491820ABBEFEE72600020094
:1004400070470000FEE7000040F2F810C2F2000022
:1004500000F00CB8704700004FF4005000F0EEBB05
:10046000EFF3108072B600BFFEE70000F0B581B078
:1004700004460020009040F20800C2F2000002682A
:10048000D4E9166048F2B51337680821C1F64E3337
:1004900081403942A2FB03250CD0226813685B0718
:1004A00008D5136823F004031360B160616D41F057
:1004B0000101616501218140394208D022685269F9
:1004C000120604D5B160616D41F00201616504213D
:1004D0008140394208D022681268920704D5B16081
:1004E000616D41F00401616510218140394217D0EE
:1004F00020680268120713D5B160026801685203D0
:1005000008D4C90508D4016821F008010160216CF4
:1005100021B905E008033FD4216C09B12046884782
:10052000E16D202000FA01F23A4241D020680368D0
:10053000DB063DD5B26094F835300268052B1BD13F
:1005400022F016020260426922F080024261226CAF
:100550000AB9A26C1AB1026822F0080202603F20B8
:100560008840B060012084F83500216D002000290A
:1005700084F8340052D157E00168520310D4C90501
:1005800012D4016821F010010160012084F83500C7
:10059000002084F8340007E0A16C0029BED1BFE739
:1005A000080301D4616C00E0E16B09B12046884783
:1005B000606DC8B3606DC0072ED0052084F835008B
:1005C0002068A90A026822F001020260009A013242
:1005D0008A4200921AD80268D20717D0009A0132D4
:1005E0008A42009212D80268D2070FD0009A0132D4
:1005F0008A4200920AD80268D20707D0009A0132D4
:100600008A42009202D80268D207DFD1012084F822
:100610003500002084F83400E16C29B1204601B097
:10062000BDE8F040084700BF01B0F0BD2DE9F04142
:10063000044600F0EFFBECB10546022084F83500DB
:100640000020216884F83400086820F00100086068
:1006500021680868C00711D000F0DCFB401B0528AA
:10066000F6D9032520230320636584F83550BDE8BF
:10067000F08100BF0120BDE8F08100BF086848F2AA
:100680003F02CFF21002D4E9013500EA020C04F176
:100690000C0898E8C10143EA0C032B431843D4E942
:1006A000072E304338431043626A40EA0E00042AA2
:1006B00040EA08031CD1206BD4E90A2E40EA0E0060
:1006C000184308604869BEF1000F20F0030040EABB
:1006D000020040F0040C11D0B8F5005F36D0B8F13C
:1006E000000F45D1022A46D0012A3BD032B942E060
:1006F0000B60486920F0070040EA020C01F0F800A6
:100700004AF6AB221038CAF6AA22A0FB02231A0925
:1007100043F25A23C0F600039A5C40F2FF335F288D
:100720004FF03F00C1F814C021EA030100FA02F0C3
:1007300088BF0431C4E91612886000230125002017
:10074000636584F83550BDE8F08100BF032AD5D831
:10075000012540230120DFE802F0030E030500BF5E
:1007600082E700BFAEF1C070B0FA80F0400904E04B
:10077000032A04D3C2D1CEF300600028BED00125E5
:1007800040230120636584F83550BDE8F081000006
:1007900070B590F834C0BCF1010F46D04FF0010C99
:1007A00080F834C0D0F858E090F835C0BCF1010FA3
:1007B00038D14FF0020C80F835C04FF0000CC0F873
:1007C00054C0D0F800C08468056CC06DDCF80060CF
:1007D000402C26F48026CCF80060CCF804300B4680
:1007E00004BF13460A463F2101FA00F0CCF8083056
:1007F000CCF80C20CEF80800DCF8000040F0160021
:10080000CCF800002DB1DCF8000040F00800CCF876
:100810000000DCF8000040F00100CCF800000020EF
:1008200070BD00BF002180F83410022070BD0000B0
:10083000B0B5044600F0EEFA054640F20000C2F200
:1008400000000078611C18BF044400BF00F0E2FA09
:10085000401BA042FAD3B0BD70B582B0002843D08F
:100860000446D0F8840028B92320C4F88400204628
:1008700000F022F90020019043F64400C4F2020087
:1008800001684FF4805641F480410160006800F433
:1008900080400190019843F60400C4F20100016811
:1008A00021F4000101602168A26803681A43026014
:1008B0000068885940F00100885100F0ABFA054605
:1008C00020688159C90713D000F0A4FA401BB0F585
:1008D000FA7FF5D90120E0220421C4F88810C4F879
:1008E000842002B070BD00BF012002B070BD00BF07
:1008F000016848F20F12CFF62072114001F59C41B9
:10090000016005680120FFF793FF20684FF64172F0
:100910000560816911408031816185690120FFF79F
:1009200087FF206841F218018561425843F623731E
:10093000CFF6DE031A4042F0087242F00402425041
:1009400045580120FFF774FF206800F580518D6144
:1009500042F280014FF48055C0F2C1214151465905
:100960000120FFF765FF2068E26800214651116011
:1009700051609160D160A261136800F5805C43F41E
:100980008013136002F12803D360166844F2F45513
:1009900046F4400616609162D16211635163E361CF
:1009A000936A43F48013936202F150035363966A8F
:1009B00046F440069662116551659165D1652362E2
:1009C000136D43F48013136502F17803D365166D3C
:1009D00046F4400616659167D167C2F88010C2F8E8
:1009E00084106362936F43F480139367C2F884208A
:1009F000936F43F440039367A162CCF810202269FF
:100A00004FF00043116051609160D160C2E908115C
:100A100013605560566826F00046566002F12806BD
:100A2000A264D6609162D16211635163C2E912116E
:100A30009362D562D06A20F00040D06202F150008B
:100A4000E6645063116551659165D165C2E91C1179
:100A500013655565566D26F000465665206502F112
:100A60007800D0659167D167C2F88010C2F8841011
:100A7000C2E926119367D567D36F23F00043D3678C
:100A80006065C2F884202166C4E91A11C4E9161110
:100A9000CCF80C20606848F240038288C4F202035C
:100AA0001A600068102258600020C4F88810C4F84A
:100AB000842002B070BD00002DE9F04385B00068CD
:100AC00048F20001C4F20201884203D005B0BDE83B
:100AD000F08300BF002643F630000096C4F2020007
:100AE0000168002441F0007101600168C4F2020451
:100AF00001F0007100910099009601686D4641F087
:100B00008061016001684FF0020801F0806100918E
:100B10000099009601684FF0030941F000610160FF
:100B200001680B2701F000610091009900960168AF
:100B300041F004010160016801F004010091009995
:100B40000096016841F001010160016801F00101B6
:100B5000009100990096016841F00201016001686E
:100B600001F00201009100990096016841F04001F6
:100B700001600068294600F0400000900098322093
:100B8000009004F50060CDE90186CDF80C90049743
:100B900000F060F88620CDE9000820462946CDE91E
:100BA0000269049700F056F84FF40050CDE90008B0
:100BB00004F580602946CDE90269049700F04AF8FF
:100BC0004FF42050CDE9000804F5C0502946CDE986
:100BD0000269049700F03EF805B0BDE8F08300001C
:100BE000B0B540F27005C2F20005287840F6000466
:100BF0000128C4F202040AD120464FF4005100F04B
:100C0000FDF820B90020287000F004F9686000F0B9
:100C100001F96968401A0B280ED320464FF40051A1
:100C200000F0ECF8012818BFB0BD40F20C00C2F291
:100C30000000012101602970B0BD000043F614419D
:100C4000C4F201010A68024214BF08607047FFF74E
:100C5000C7BF00002DE9F04F82B000F13E4242F2E2
:100C6000004502F1FF77C4F202050A2243F6004E66
:100C70004FEAB726A84208BF0922C4F2010E092E86
:100C800038BF4FEAB7220125002600274FF00008A1
:100C9000009208E008F101080437B8F1100F06F1DE
:100CA000020600F0A7800C6805FA08F914EA090F9B
:100CB000F0D0D1F804B003220BF0030CACF1010426
:100CC000B240012C6FEA020A10D88268CC6802EAAE
:100CD0000A02B440224382604268CBF3001422EA45
:100CE000090204FA08F42243426005E0BCF1030F54
:100CF00002D14FF0030C20E0C2688C6802EA0A02BD
:100D0000B4402243BCF1020FC26016D16FF003025F
:100D100002EA58020244D2F820C007F01C050F2353
:100D20000C69AB402CEA030304FA05F52B4313626C
:100D3000D1F804B001250BF0030C02680CFA06F39D
:100D400002EA0A021A431BF4403F0260A2D00022CA
:100D500043F644030192C4F202031A684FF6084CAA
:100D600042F480421A601A68CFF6FF7C02F4804297
:100D70000192019A28F00302724452F80C3007F0F5
:100D80000C050F24AC40A343009C04FA05F52B434B
:100D900042F80C30DEF808204B6842EA090543F6B9
:100DA0000C4CDC0258BF22EA0905CEF80850C4F208
:100DB000010CDCF800209C0242EA090558BF22EA37
:100DC0000905CCF80050DEF804209C0342EA09052E
:100DD00058BF22EA0905CEF80450DEF80020DB03F4
:100DE00042EA090558BF22EA0905CEF8005001255C
:100DF00050E700BF02B0BDE8F08F00000069084076
:100E000018BF012070470000002A08BF0904816153
:100E10007047000040F6E800C2F20000006870472A
:100E200040F2000040F6E801C2F20000C2F2000108
:100E300000780A68104408607047000080B543F6E7
:100E40000040C4F20200016841F4007101600168D1
:100E500041F480610160016841F480710160032008
:100E600000F088F8002000F005F800F027F80020D6
:100E700080BD000070B540F20006C2F2000640F2EC
:100E800008013278C2F200014FF47A730968B3FBAB
:100E9000F2F20446B1FBF2F1084600F025FC0F2CFB
:100EA0004FF0010508D838B94FF0FF302146002235
:100EB000002500F033F87460284670BD82B0002031
:100EC00043F640010190C4F202014A6842F48042B4
:100ED0004A604A6802F480420192019A00900868D0
:100EE00040F080500860086800F080500090009842
:100EF00002B07047002848BF7047C1B200F01F0021
:100F0000012202FA00F04EF20012CEF2000242EA92
:100F1000D10121F0030108607047000010B54EF6C2
:100F20000C5CCEF2000CDCF80030C3F3022E8EF025
:100F30000704042C28BF0424BEF103034FF0FF3E36
:100F40000EFA04F438BF0023A14399400EFA03F3CC
:100F50009A43114300F00F0200F160430901043A83
:100F600003F564436244002848BF02F10C03197082
:100F700010BD00004EF60C51CEF200010A684FF68B
:100F8000FF031A4060F30A2242F0806040F0FD70D7
:100F9000086070472DE9F04F8BB0002800F0868084
:100FA0000446056890F8BD0428B9002084F8BC0404
:100FB000204600F08FF8032084F8BD04E86BC005DC
:100FC0005CBF00202061206801F00AFF206804F166
:100FD0001C0A0A90D4E90C5004F1040E9AE8C007E8
:100FE0009EE80E58CDE9085003A880E8C0030A988F
:100FF0008DE80058CDF81CA001F0A8FB002852D1C4
:1010000020680021002501F0F3FE616861B3012032
:101010000023002203EBC30304EB830787F83C2083
:10102000D3B20132A7F84430D3B2994287F83D00D9
:1010300087F84050C7E912557D65EBD800200023A2
:10104000002200BF03EBC30304EB830787F87C2275
:101050000132D3B2994287F87D0287F88002C7E94E
:10106000A200C7F89402EDD8A06822680A90D4E9DB
:101070000C5004F1140E04F1240AD4E903379EE85D
:1010800040589AE80007CDE9085002A880E80058C7
:1010900010460A9ACDE90076CDE90589CDF81CA065
:1010A00001F054FC40B1022084F8BD04012528461B
:1010B0000BB0BDE8F08F00BF0025012084F8385048
:1010C00084F8BD04206801F031FC28460BB0BDE86F
:1010D000F08F0000F0B587B00068B0F1A04F01D0EC
:1010E00007B0F0BD002743F630060297C4F20206AF
:1010F0003068002440F0010030603068C4F202041F
:1011000000F00100029002984FF4E8500290022093
:10111000CDE90307032005900A2002AD0690204682
:101120002946FFF797FD4FF40070CDE902072046EE
:1011300029460497FFF78EFD706840F080007060CC
:101140000197706940F480407061706900F48040DC
:101150000190019807B0F0BD2DE9F041002800F0A2
:101160008B8043F60808C4F202080446D8F8F80356
:101170000D4600F00F00884207D288F8F853D8F8DF
:10118000F80300F00F00A84276D12068810717D538
:10119000410705D5D8F8001041F4E051C8F8001017
:1011A000010705D5D8F8001041F46041C8F80010D7
:1011B000D8F80010A26821F0F0011143C8F800101F
:1011C000C0073FD1D8F8F80300F00F00A84207D9B4
:1011D00088F8F853D8F8F80300F00F00A8424BD174
:1011E0002068410707D5D8F80010E26821F4E051E3
:1011F0001143C8F80010000708D5D8F8000021698D
:1012000020F4604040EAC100C8F8000000F07CF81B
:10121000D8F8001043F24222C1F30311C0F60002D5
:10122000515C40F2080220FA01F140F20400C2F2DF
:1012300000000068C2F200021160FFF71BFE0020F0
:10124000BDE8F0816068811E022907D258F8081CA9
:1012500089015CBF0120BDE8F08111E0012807D1C0
:1012600058F8081C89035CBF0120BDE8F08107E045
:1012700058F8081C890703D40120BDE8F08100BF9D
:10128000D8F8001021F003010843C8F80000FFF768
:10129000C1FD064641F28837D8F80000616800F0C9
:1012A0000C00B0EB810F8DD0FFF7B4FD801BB8426E
:1012B000F2D90320BDE8F08140F2080043F60801AE
:1012C000C2F20000C4F202010068096843F252222F
:1012D000C1F38221C0F60002515CC8407047000093
:1012E00040F2080043F60801C2F20000C4F2020115
:1012F0000068096843F25222C1F34231C0F600028D
:10130000515CC8407047000010B543F60404C4F2B5
:101310000204606800F00C0142F200400829C0F2AB
:10132000F40007D0042918BF10BD41F20020C0F21C
:101330007A0010BD216801F03F022168236849024C
:10134000C3F3881106D4A1FB00010023FEF79EFF22
:1013500007E000BF41F20020C0F27A004843B0FB32
:10136000F2F021680222C1F3014102EB4101B0FB1E
:10137000F1F010BD2DE9F04182B0002868D004469C
:10138000007843F60006C007C4F202060BD0B0682E
:1013900000F00C00042840F09F803068800302D5E4
:1013A0006068002854D0207880071AD5B06810F003
:1013B0000C0F09D0B06800F00C00082840F0A6809F
:1013C0007068400200F1A2803068800702D5E068B2
:1013D00001283DD13068216920F0F80040EAC100C1
:1013E00030602078000737D4207840074CD4A569B6
:1013F00055B3B06800F00C00082840F0BB80012D08
:1014000026D07068E16900F480028A4220D1216A06
:1014100000F03F028A421BD147F6C071626A014068
:10142000B1EB821F14D1A16A4FF6FF73C903994330
:1014300000F44032A1F580318A4209D1E16A00F01E
:101440007060B0EB016F03D1002002B0BDE8F08105
:10145000012002B0BDE8F0816069002840F2000080
:10146000C4F2472076D00121C0F8801EFFF7D2FCDD
:10147000054600BF706F8007B6D4FFF7CBFC401B5A
:101480000228F7D9DDE000BF306C10F080580AD197
:1014900000200190306C40F080503064306C00F0DF
:1014A00080500190019847F20007C4F200073868A5
:1014B000C00541D4386840F480703860FFF7AAFC5A
:1014C000054600BF3868C00536D4FFF7A3FC401BB3
:1014D0000228F7D9B5E000BFB06800F00C0008287A
:1014E00003D1706840023FF558AF6068B0F5803FA7
:1014F00007D0B0F5A02F40F08D80306840F48020F8
:101500003060306840F4803030608DE0E068002862
:1015100052D00020C4F2472001210160FFF77AFC7D
:10152000054600BF306880073FF554AFFFF772FCF7
:10153000401B0228F6D984E0A068012805D00528C0
:101540004ED1306F40F004003067306F40F0010042
:1015500030674FE00021C0F8801EFFF75BFC0546B6
:10156000706F80077FF540AFFFF754FC401B0228E7
:10157000F6D966E00027C4F2472700203866FFF757
:1015800049FC022D05460BD1306880015ED5FFF77E
:1015900041FC401B02284FF00300F5D955E700BF7E
:1015A000306880017FF550AFFFF734FC401B022804
:1015B0004FF00300F4D948E70020C4F2472000218F
:1015C0000160FFF727FC0546306880077FF509AF0B
:1015D000FFF720FC401B02284FF00300F4D934E74A
:1015E000316F002821F001013167316F21F00401D2
:1015F00031674DD0FFF70EFC054641F2883700BF3A
:10160000306F800756D4FFF705FC401BB842F7D96E
:1016100017E000BF3168002821F480313160316863
:1016200021F4802131604FD0FFF7F4FB054600BF65
:10163000306880033FF5B7AEFFF7ECFB401B642832
:10164000F6D9032002B0BDE8F08100BF04F11C050B
:101650002FCD084340EA8210D9034FF6FF72914321
:10166000A1F5803140EA05600843706001203866CA
:10167000FFF7D0FB044600BF306880013FF5E4AEC1
:10168000FFF7C8FB001B02284FF00300F4D9DCE68B
:10169000FFF7C0FB054641F2883700BF306F800777
:1016A00008D5FFF7B7FB401BB8424FF00300F5D950
:1016B000CBE600BFB8F1000F7FF499AE306C20F09C
:1016C0008050306493E600BFFFF7A4FB054600BFDF
:1016D000306880037FF567AEFFF79CFB401B6428F2
:1016E0004FF00300F4D9B0E6411E0020B0EB116FBB
:1016F0001CBF012070474EF21002CEF20002516072
:101700004EF62351CEF20001F0230B7007219060BA
:10171000116070477047000070470000B0B590F846
:101720003C20012A04BF0220B0BD01F108053CCDD8
:10173000D1E900CE23F47C5322F470521A432EF4E4
:10174000F0431A432CF4E0431A4324F4C0431A43F1
:101750002A43C96922F48042036811435964002175
:1017600080F83C100846B0BD10B590F83C20012A26
:101770004FF0020251D080F83D200268D2F804E018
:10178000D2F808C00C682EF07003234341F2FF74B6
:10179000C4F20004A24253600EDC40F2FF73C4F2B4
:1017A00000039A4216DCB2F1804F2BD040F2004386
:1017B000C4F2000324E000BF40F2FF33C4F201038F
:1017C0009A4213DC41F60003C4F200039A4219D096
:1017D000002313E040F60003C4F200039A4211D044
:1017E00040F60043C4F200030AE000BF44F20003E5
:1017F000C4F201039A4205D040F20043C4F201034F
:101800009A4204D149682CF0800319439160012168
:10181000002280F83D1080F83C20104610BD0000EA
:10182000002804BF0120704710B5044690F83D0021
:1018300028B9002084F83C00204600F01FF8022060
:1018400084F83D002068211D00F0E8FD012084F8A7
:10185000460084F83E0084F83F0084F8400084F895
:10186000410084F8420084F8430084F8440084F87E
:10187000450084F83D00002010BD0000F0B583B0A5
:101880000446006841F20001C4F2000188423BD0E6
:101890000021C4F20101884234D1002043F6400106
:1018A0000290C4F202014A6840F2F81542F00102C7
:1018B0004A604968C2F2000501F0010102910299F3
:1018C00046F22841C4F202014FF04062402385E80D
:1018D0000E0005F10C014FF4806C4FF4006E4FF4D4
:1018E00000564FF4807781E80150C5E9080028468A
:1018F000C5E90667FEF79AFE002818BFFEF7B0FD9F
:101900006562AC6303B0F0BD0020019043F6400077
:10191000C4F202000168002241F010010160006879
:10192000002100F01000019001983620FFF7F6FA30
:10193000362003B0BDE8F040FFF7DCBA90F83D1068
:1019400001291CBF01207047022180F83D1000686A
:1019500041F2FF72C168C4F20002904241F00101FD
:10196000C1600DDC40F2FF71C4F20001884215DC59
:10197000B0F1804F2AD040F20041C4F2000123E0D0
:1019800040F2FF31C4F20101884213DC41F600014C
:10199000C4F20001884219D0002113E040F6000192
:1019A000C4F20001884211D040F60041C4F20001A7
:1019B0000AE000BF44F20001C4F20101884205D0F0
:1019C00040F20041C4F20101884206D1816801F071
:1019D0000701062904BF00207047016841F001019A
:1019E000016000207047000080B590F83C20012A7B
:1019F0004FF0020200F0C28080F83D20D0F800C015
:101A00004FF67772DCF8083023EA0202CCF808209F
:101A10000B684F2B28DC1F2B44DD202B45D0302BAF
:101A200043D0402B40F0AC80D1F804E0C968DCF82A
:101A30002030DCF8202022F00102CCF82020DCF855
:101A4000182022F0F00242EA011123F00A0242EAD1
:101A50000E02CCF81810CCF82020DCF8081041F069
:101A6000470121F0300180E06F2B27DDB3F5005FE7
:101A700048D0B3F5805F7AD0702B40F08180D1E9F7
:101A800001E3C968DCF8082043EA0E0322F47F4230
:101A900043EA01211143CCF80810DCF8081041F0AA
:101AA000770162E00BB1102B6AD1DCF8081021F04D
:101AB0007001194341F0070157E000BF502B35D0AA
:101AC000602B5DD1D1F804E0C968DCF8203023F048
:101AD0001003CCF82030DCF81830DCF8202023F498
:101AE000704322F0A00243EA013142EA0E12CCF820
:101AF0001810CCF82020DCF8081041F0670121F024
:101B0000100132E0D1E901E3C968DCF8082043EABA
:101B10000E0322F47F4243EA01211143CCF808105E
:101B2000DCF8081041F480411FE000BFD1F804E068
:101B3000C968DCF82030DCF8202022F00102CCF863
:101B40002020DCF8182022F0F00242EA011123F0F4
:101B50000A0242EA0E02CCF81810CCF82020DCF879
:101B6000081041F0570121F02001CCF808100022A4
:101B7000012180F83D10002180F83C10104680BD06
:101B80000122F5E7704700007047000010B50168BA
:101B900004460869800744BFC8685FEA807039D48A
:101BA0000869400744BFC8685FEA40703ED40869CE
:101BB000000744BFC8685FEA007045D40869C006E2
:101BC00044BFC8685FEAC0604AD40869C0071CBF48
:101BD000C8685FEAC07051D10869000644BFC86890
:101BE0005FEA006052D40869400644BFC8685FEAF3
:101BF000406053D40869800646BFC8685FEA8060C9
:101C000010BD6FF0200220460A61BDE81040FFF7CA
:101C100083BD00BF6FF00200086101202077886952
:101C2000800743D02046FFF7AFFF45E06FF0040088
:101C3000086102202077886910F4407F40D0204658
:101C4000FFF7A2FF42E000BF6FF008000861042028
:101C50002077C86980073DD02046FFF795FF3FE019
:101C60006FF01000086108202077C86910F4407FE9
:101C70003AD02046FFF788FF3CE000BF6FF001003C
:101C80000861204600F0ECFA2168A5E76FF08000BB
:101C900008612046FFF73EFD2168A4E76FF0400091
:101CA0000861204600F0DEFA2168A3E7204600F034
:101CB0004FF8204600F090F92168002020776FE768
:101CC000204600F045F8204600F086F92168002003
:101CD00020776CE7204600F03BF8204600F07CF9C6
:101CE00021680020207769E7204600F031F820467F
:101CF00000F072F921680020207766E780B586B091
:101D000001680020C4F20100814201D006B080BD0C
:101D1000002143F630020191C4F20202136800F57B
:101D2000883043F010031360126802F01002019231
:101D3000019A4FF4007201920222CDE9022104912E
:101D40000121059101A9FEF785FF06B080BD0000C5
:101D5000704700002DE9F04390F83C30012B04BFA0
:101D60000220BDE8F0834FEAB202032A00F2FC80B1
:101D7000DFE802F0023E7EBE036840F200471A6AC6
:101D800043F4806522F001021A621C6A1A46D3F8F5
:101D900004E052F818CF8E6824F00204C4F2010760
:101DA000BD4244EA060405D1CE6824F00C0426F0B6
:101DB000040634430E68BD4207D1D1E905572EF41D
:101DC000407E45EA0E0545EA070E2CF073073743BF
:101DD000C3F804E09F614F6809695F631C629F69F3
:101DE00047F008079F619F6927F004079F61B1E0F2
:101DF000036840F200481A6A43F4806522F010023A
:101E00001A621C6A1A46D3F804C052F818EF8F6899
:101E100024F02004C4F20108454544EA071407D120
:101E2000CF686FF0400624F0C00406EA071634437A
:101E3000D1F80090454506D1D1E905562CF440670C
:101E40002E4347EA860C2EF4E64747EA0927C3F8F3
:101E500004C09F614F6809699F631C629F6947F4D2
:101E600000679F619F6927F480679F6171E000BFF1
:101E7000036840F200481A6A43F4806522F48072D5
:101E80001A621C6A1A46D3F804C052F81CEF8F6815
:101E900024F40074C4F20108454544EA072408D13B
:101EA000CF6840F2FF463F0224F4406427EA06066A
:101EB0003443D1F80090454506D1D1E905562CF4BC
:101EC00040572E4347EA061C2EF0730747EA0907DE
:101ED000C3F804C0DF614F680969DF631C62DF6912
:101EE00047F00807DF61DF6927F00407DF6131E0B1
:101EF000036840F200451A6A43F4806722F4805276
:101F00001A621A46D3F820C05C6852F81CEFD1F868
:101F100000808E68C4F20105AF4204D14D6924F4FB
:101F2000804444EA85142CF4005747EA06372EF41F
:101F3000E64646EA08265C60DE614E6809691E6472
:101F40001F62DF6947F40067DF61DF6927F480679C
:101F5000DF6109021368194311600021002280F833
:101F60003C200846BDE8F0830121002280F83C2097
:101F70000846BDE8F0830000002804BF0120704738
:101F800010B5044690F83D0028B9002084F83C00C4
:101F9000204600F01FF8022084F83D002068211D33
:101FA00000F03CFA012084F8460084F83E0084F8F2
:101FB0003F0084F8400084F8410084F8420084F82F
:101FC000430084F8440084F8450084F83D00002074
:101FD00010BD00007047000070470000704700000F
:101FE000B0B50C46054649B1082C13D0042C14BFDB
:101FF00005F1410005F13F000EE000BF95F83E00FD
:10200000022804BF0220B0BD05F13E00007801287F
:102010001BD118E005F140000078022804BF02201F
:10202000B0BD082C0AD0042C14BF05F1410005F105
:102030003F000078012808D105E000BF05F140000D
:102040000078012801D11AB913B10120B0BD00BF39
:1020500002206CB1082C13D0042C14BF85F8410069
:1020600085F83F004FEAB40003280FD9EDE700BF21
:1020700085F83E004FEAB400032807D9E5E700BF22
:1020800085F840004FEAB4000328DED8DFE800F00E
:1020900002224264686A42F25951C0F60001C163EB
:1020A000686A42F2C551C0F600010164686A42F2F2
:1020B000FD51D5F800C0C0F60001C164686A0CF19A
:1020C000340C11466246FEF763FB0028BDD14FF485
:1020D000007161E0A86A42F25951C0F60001C16383
:1020E000A86A42F2C551C0F600010164A86A42F232
:1020F000FD51D5F800C0C0F60001C164A86A0CF11A
:10210000380C11466246FEF743FB00289DD14FF480
:10211000806141E0E86A42F25951C0F60001C163B2
:10212000E86A42F2C551C0F600010164E86A42F271
:10213000FD51D5F800C0C0F60001C164E86A0CF199
:102140003C0C11466246FEF723FB00287FF47DAF6E
:102150004FF4006120E000BF286B42F25951C0F6F5
:102160000001C163286B42F2C551C0F60001016451
:10217000286B42F2FD51D5F800C0C0F60001C164E1
:10218000286B0CF1400C11466246FEF701FB00285B
:102190007FF45BAF4FF480512868C2681143C1607F
:1021A00004F01F010122036A02FA01F123EA01028D
:1021B0000262026A114341F2FF72C4F200029042CD
:1021C00001620BDC40F2FF71C4F20001884213DCB3
:1021D000B0F1804F36D040F2004115E040F2FF31BF
:1021E000C4F20101884215DC41F60001C4F200018D
:1021F000884227D0002115E040F60001C4F200011A
:1022000088421FD040F60041C4F20001884219D034
:102210001FE000BF44F20001C4F20101884211D066
:1022200040F20041C4F20101884212D1416C40F2F7
:10223000004340F48062C4F2010341F400419A4239
:10224000416406D1816801F00701062904BF00201E
:10225000B0BD016841F0010101600020B0BD000087
:102260007047000070470000002804BF012070473D
:1022700010B5044690F83D0028B9002084F83C00D1
:10228000204600F021F8242084F83D002068C16831
:1022900021F40051C160204600F0E0F92068016996
:1022A00021F490410161416921F02A014161C16835
:1022B00041F40051C16000202021206484F83D10C9
:1022C00084F83E1010BD000080B586B0016844F669
:1022D0000000C4F20000814202D006B080BD00BF01
:1022E000002143F630020191C4F20202136900F5A5
:1022F000E23043F480231361136903F480230193D4
:10230000019B0191136843F008031360126802F007
:1023100008020192019A4FF4407201920222CDE923
:102320000221032104910721059101A9FEF792FCE6
:1023300006B080BDFEE70000FEE70000FEE70000FB
:102340007047000070470000FEF76ABDB0B592B05C
:10235000002443F64000CDE90A44CDE90844059441
:10236000CDE90344CDE901440094C4F202000168C0
:10237000022541F080510160006800F0805000901B
:10238000009847F200000094C4F20000016841F494
:1023900040410160006800F4404000900098012036
:1023A00006904FF4803007904FF480000D90042089
:1023B0000E90A820CDE90F050720119006A80C95D6
:1023C000FEF7D8FF20B1EFF3108072B6FEE700BF32
:1023D0000F20CDE901054FF4A05004904FF4805038
:1023E000059001A805210394FEF7B6FE20B1EFF396
:1023F000108072B6FEE700BF12B0B0BD4EF6885036
:10240000CEF20000016841F47001016070470000E5
:1024100040F65C00C2F20000FFF7B8BB10B540F612
:10242000FF3E0368C4F2000E40F2004C7045C4F257
:10243000010C27DCB0F1804F31D040F20042C4F2F1
:10244000000290422BD040F60002C4F200029042FB
:1024500025D041F6FF72C4F20002904229DC70459B
:102460003CDCB0F1804F5FD040F20042C4F2000289
:10247000904259D040F60002C4F20002904253D07C
:1024800056E000BF40F60042C4F20002904206D07F
:10249000604504D00022C4F201029042D9D14A68BA
:1024A00023F07003134341F6FF72C4F2000290421E
:1024B000D5DD43F6FF72C4F20102904222DC42F203
:1024C0000002C4F2000290422ED00022C4F20102A7
:1024D000904229D0604527D02AE000BF40F6004254
:1024E000C4F2000290421FD041F60002C4F2000282
:1024F000904219D041F60042C4F20002904213D03B
:1025000016E000BF44F20002C4F2010290420BD078
:1025100044F60002C4F20102904205D044F20042A7
:10252000C4F20102904203D1CA6823F440731343FA
:1025300023F080024B69D1F800E08C681A430260F6
:10254000C46240F48062C0F828E0624504BF0969B3
:1025500001630121416110BD10B5846B616A814244
:1025600012D0A16A814217D0E16A81421CD0216B4E
:10257000814220D1C06908210028217704BF0120B1
:1025800084F8410017E000BFC169012000292077CD
:1025900008BF84F83E000EE0C0690221217750B9DF
:1025A000012084F83F0006E0C0690421217710B9BA
:1025B000012084F840002046FFF70EFD0020207720
:1025C00010BD000010B5846B616A81420AD0A16A17
:1025D000814209D0E16A814208D0216B814207D152
:1025E000082004E0012002E0022000E0042020771F
:1025F0002046FFF7F3FC0020207710BD10B5846B58
:10260000616A81420CD0A16A81420FD0E16A8142A5
:1026100012D0216B814215D0012084F83D0016E0D4
:102620000120207784F83E0011E000BF02202077CF
:10263000012084F83F000AE004202077012084F87C
:10264000400004E008202077012084F84100204663
:10265000FFF798FA0020207710BD000010B504465F
:102660000068D4E902C22369016921F44051114391
:102670000161626943EA0C01E3691143C2681943CD
:1026800049F20C639A431143C1604169A26921F484
:10269000407141F20043114340F48062C4F20103EF
:1026A0009A42416102D1FEF71BFE01E0FEF704FEF3
:1026B000E16963681922B1F5004FA0FB020123D143
:1026C0005A00DB0FFDF7E2FD48F21F51C5F2EB1196
:1026D000A0FB01235A094FF69C73C0F6FF7303F168
:1026E000805302FB0300322303EBC000A0FB010177
:1026F0004FF4F87000EA111000EB0210C1F3421120
:1027000008442168886010BD9A009B0FFDF7BEFD4C
:1027100048F21F51C5F2EB11A0FB01235A094FF6F5
:102720009C73C0F6FF7302FB0300322303EB00101F
:10273000A0FB0101F02000EA511000EB0210C1F3F0
:10274000431108442168886010BD000082B00499DC
:10275000DDF808C0012940F64051C0F203016FD1F5
:10276000826B4FF6BF7322F480328263C268CFF669
:10277000BD731A40C260C2680B9B22F44012012B49
:10278000C26003D1C26842F48012C260002200928B
:10279000009A01320092009A8A4200F2A9800269EE
:1027A000002A1ED4009A01320092009A8A4200F256
:1027B0009F800269002A14D4009A01320092009A84
:1027C0008A4200F295800269002A0AD4009A0132F6
:1027D0000092009A8A4200F28B800269B2F1FF3FB8
:1027E000D6DC00220092026942F001020261009AE6
:1027F00001320092009A8A427AD80269D2071AD02E
:10280000009A01320092009A8A4271D80269D20776
:1028100011D0009A01320092009A8A4268D8026967
:10282000D20708D0009A01320092009A8A425FD8FB
:102830000269D207DBD10021BCF1010F72D169E03E
:10284000C268089B42F04002C26000220192019AD5
:1028500001320192019A8A4250D80269002A1BD49F
:10286000019A01320192019A8A4247D80269002AEC
:1028700012D4019A01320192019A8A423ED8026929
:10288000002A09D4019A01320192019A8A4235D86C
:102890000269B2F1FF3FDADC00220192026942F0E4
:1028A00001020261019A01320192019A8A4225D8FD
:1028B0000269D2071AD0019A01320192019A8A4222
:1028C0001CD80269D20711D0019A01320192019AF3
:1028D0008A4213D80269D20708D0019A01320192C4
:1028E000019A8A420AD80269D207DBD1002106E0A8
:1028F0000321BCF1010F15D10CE000BF0321826B55
:10290000002B14BF22F4803242F480328263BCF187
:10291000010F07D1826842F006028260826842F0AD
:1029200020028260084602B0704700000146D0F8DD
:10293000000E20F00300C1F8000ED1F8040840F0AA
:1029400002020020C1F80428704700002DE9F04F72
:1029500083B0DDF84C800E9F0022B8F1000FC0F864
:102960000421C0F80821C0F80C21C0F81021C0F8DB
:102970001421C0F81821C0F81C21C0F82021C0F88B
:102980002421C0F82821C0F82C21C0F83021C0F83B
:102990003421C0F83821C0F83C210BD0826B00F5FF
:1029A000006B22F400128263826B42F40022826385
:1029B00014E000BFD0F8042800F5006B42F00202DA
:1029C000C0F80428826B42F400128263826B22F406
:1029D00000228263866B26F4802686630026C0F878
:1029E000006ED0F80068012FC0F8006806D1DBF84F
:1029F0000070002B18BF47F0010703E0DBF8003040
:102A000043F00307DDF83CE0DDF8309040F6405538
:102A1000C0F203050023C0F800780193019B013345
:102A20000193019BAB4249D80369002B1BD4019B46
:102A300001330193019BAB4240D80369002B12D4B0
:102A4000019B01330193019BAB4237D80369002BF3
:102A500009D4019B01330193019BAB422ED803693A
:102A6000B3F1FF3FDADC002301934FF48463036189
:102A7000019B01330193019BAB421FD803699B0665
:102A80001AD5019B01330193019BAB4216D8036910
:102A90009B0611D5019B01330193019BAB420DD8DD
:102AA00003699B0608D5019B01330193019BAB424F
:102AB00004D803699B06DBD4002400E00124002332
:102AC0000293029B01330293029BAB4248D80369F5
:102AD000002B1BD4029B01330293029BAB423FD8D5
:102AE0000369002B12D4029B01330293029BAB4279
:102AF00036D80369002B09D4029B01330293029B51
:102B0000AB422DD80369B3F1FF3FDADC0023029317
:102B100010230361029B01330293029BAB421FD837
:102B20000369DB061DD5029B01330293029BAB4276
:102B300016D80369DB0614D5029B01330293029B6E
:102B4000AB420DD80369DB060BD5029B0133029320
:102B5000029BAB4204D80369DB06DBD401E000BF73
:102B600001244FF0000A0029CBF810A0CBF814A0E4
:102B7000CBF81CA000F00681D0F800394FF00067B8
:102B800007EA13134FF67F324E1EC0F80039C0F823
:102B900010A9C0F808297BD08B1E032B06F003096F
:102BA0007246009404D22024B9F1000F3FD165E0B1
:102BB00026F0030400234FF0904E4FF67F384FF07D
:102BC000000C00BF00EB0C05D5F82079043C0EEAA0
:102BD000E777C5F82079C5F83039C5F82889D5F8E0
:102BE00040790CF1800C0EEAE777C5F84079C5F81A
:102BF0005039C5F84889D5F860790EEAE777C5F805
:102C00006079C5F87039C5F86889D5F880790EEA19
:102C1000E777C5F88079C5F89039C5F88889D1D1AA
:102C2000DDF84C800CF12004B9F1000F26D000F53E
:102C300010673D594FF0904C0CEAE5753B193D513A
:102C400000244FF67F3EB9F1010F1C61C3F808E084
:102C500014D01D6AB9F1020F0CEAE5771F621C63FC
:102C6000C3F828E00AD01F6C4FF0904505EAE777DB
:102C70001F6400271F654FF67F379F64DDF8309093
:102C8000009C002996464FF67F324FF0006779D0BE
:102C9000D0F8003B002E07EA1313C0F8003B4FF0BA
:102CA0000003C0F8103BC0F8082B6BD00239032991
:102CB00006F0030C04D22023BCF1000F3DD161E0EB
:102CC000009426F0030400234FF090474FF67F3620
:102CD000002100BF4518D5F8202B043C07EAE2721A
:102CE000C5F8202BC5F8303BC5F8286BD5F8402B2C
:102CF00001F1800107EAE272C5F8402BC5F8503BAC
:102D0000C5F8486BD5F8602B07EAE272C5F8602B6E
:102D1000C5F8703BC5F8686BD5F8802B07EAE272FE
:102D2000C5F8802BC5F8903BC5F8886BD2D1009CC4
:102D300001F12003BCF1000F24D000F53062D65819
:102D40004FF0904707EAE676D118D65000264FF6A6
:102D50007F33BCF1010F0E618B6013D00A6ABCF1A6
:102D6000020F07EAE2720A620E638B620AD00A6CF3
:102D70004FF0904303EAE2720A6400220A654FF6BC
:102D80007F328A64DBF81010B9F1000F21F48071F2
:102D9000CBF810106FF08041C0F818A0416103D14A
:102DA000816941F010018161816943F60002C8F236
:102DB0003C021143BEF1000F816103D0816941F0F3
:102DC00008018161B8F1010F05D1816941F08041AD
:102DD00041F004018161204603B0BDE8F08F00009E
:102DE0000146806820F0010200208A6070470000E0
:102DF000B0B50446C06820F0C040E06091B1012940
:102E000026D1E068002540F00050E0600120FDF789
:102E10000FFD6069C00705F1010014D1312D054691
:102E2000F4D310E0E068002540F08040E06000BF8F
:102E30000120FDF7FDFC6069C00705F1010002D02B
:102E4000312D0546F4D33238B0FA80F04009B0BDD8
:102E50000120B0BDFEE7000096B041F60008C4F2C4
:102E60000208FDF7EBFFFFF771FA002743F6300485
:102E7000CDE903770997C4F202042068A8F5A055AC
:102E800040F004002060206844F2810100F004005A
:102E90000990099809972068002240F0800020607E
:102EA000206844F2810900F0800009900998099790
:102EB000206840F001002060206800F001000990C7
:102EC00009980997206840F002002060206800F00F
:102ED0000200099009980997206840F010002060CE
:102EE000206800F01000099009980997206840F0C8
:102EF00008002060206800F00800099009980997F0
:102F0000206840F040002060206800F040000990F8
:102F100009982846FDF778FF4046402100224FF0EF
:102F2000400AFDF771FF4FF4005000904FF48810F5
:102F30006E46CDE90107A8F580503146FDF78AFEBF
:102F4000CDF800904FF0010928463146CDE90197B0
:102F50000397FDF77FFE40463146CDE900A9CDE954
:102F60000277FDF777FE8020CDE900074046314625
:102F70000297FDF76FFE282000210022FDF7CEFF0B
:102F80002820FDF7B7FF00972068002140F480005B
:102F900020602068002200F4800000900098392012
:102FA000FDF7BCFF3920FDF7A5FF40F27009C2F222
:102FB000000948F2000240F2582048F20001C0F235
:102FC000E1024B4640F2581640F2B805C2F200004A
:102FD000C4F2020143F8082F4FF40002C2F20006C7
:102FE000C2F2000540F2F4549F80C0E90013C0E92A
:102FF0000226C0E90454FDF72FFC28B1EFF310803E
:1030000072B600BFFEE700BF09F114003421FDF7DE
:10301000B5F92120C9F810004FF44000C9F8240088
:1030200040F6A400A8F5E831C2F200000C234FF4EA
:10303000E13280E88600C0E90377C0E90537C7615F
:10304000FFF712F920B1EFF3108072B6FEE700BF70
:1030500040F20830C2F200004FF0A0410422C0E963
:10306000001202210024012200F11803C0E9031418
:1030700016C34462C0E90B24FDF78CFF20B1EFF3C7
:10308000108072B6FEE700BF40F65C00A8F5023182
:10309000C2F2000042F2CF0241F2883380E816000B
:1030A0008021CDE90044C3608161FEF7B9FB28B1FE
:1030B000EFF3108072B600BFFEE700BF40F65C0081
:1030C000C2F200006946FEF74FFB28B1EFF3108013
:1030D00072B600BFFEE700BF40F614000021A8F55D
:1030E0008C32C2F2000044F29F1342F20F77159126
:1030F000CDE91311CDE910110691C0E90023C0E913
:103100000217C0E904118161FEF78AFB20B1EFF3D9
:10311000108072B6FEE700BF4FF48050129040F668
:103120001400C2F2000012A9FEF75EFC20B1EFF31A
:10313000108072B6FEE700BF40F61400C2F2000035
:10314000FEF71AFF20B1EFF3108072B6FEE700BF62
:1031500040F61400C2F2000010A9FEF705FB28B1EA
:10316000EFF3108072B600BFFEE700BF6020099049
:1031700040F614000024C2F2000009A90022CDE9A3
:103180000A44CDE90C44CDE90E44FEF7E3FD28B135
:10319000EFF3108072B600BFFEE700BF4FF400509F
:1031A000059040F61400C2F2000069460494CDE98F
:1031B0000244CDE900440794FEF7B0FA20B1EFF3E2
:1031C000108072B6FEE700BF40F61404C2F200049D
:1031D0002046FEF793FD40F65C00C2F20000FEF7C9
:1031E000ADFB40F2E830C0F2DC50009040F2D0700D
:1031F000C0F6C410019040F6B830C0F6AC50029052
:1032000040F6A070C1F29410039041F28830C1F2F0
:103210007C5004906A46204600210A23FEF7E0FE17
:103220006420FDF705FBFBE7F1EE100A4FF6FF7196
:10323000C0F2C03120EA010040F04070E1EE100A17
:1032400070470000000000000000010203040607B0
:103250000809000000000102030400061016000621
:103260001016000088320008000000201000000046
:10327000E80100089832000810000020E00E00006D
:10328000040200080000000001000000100000001F
:083290000024F400010000001D
:04000005080001AD41
:00000001FF
